:040000005FEF01F0BD
:10000800FACF04F0FBCF05F0E9CF06F0EACF07F00E
:10001800E1CF08F0E2CF09F0D9CF0AF0DACF0BF040
:10002800F3CF0CF0F4CF0DF0F6CF0EF0F7CF0FF0C2
:10003800F8CF10F0F5CF11F09EA201D001D083D0F7
:10004800818E829A00F0828A2E50016E026A0250D6
:10005800800A036E1950015C1A50800A0358D8B000
:1000680001D001D002D0808002D0809000D02E50E4
:10007800016E026A0250800A036E1B50015C1C501C
:10008800800A0358D8B001D001D002D0808202D0B3
:10009800809200D02E50016E026A0250800A036ED0
:1000A8001D50015C1E50800A0358D8B001D001D001
:1000B80002D0808602D0809600D02E50016E026A4F
:1000C8000250800A036E1F50015C2050800A0358BA
:1000D800D8B001D001D002D0808402D0809400D062
:1000E8002E50016E026A0250800A036E2150015C94
:1000F8002250800A0358D8B001D001D002D0808E97
:1001080002D0809E00D02E50016E026A0250800AF2
:10011800036E2350015C2450800A0358D8B001D0E4
:1001280001D002D0808C02D0809C00D02E2A1F0ED5
:100138002E6401D001D005D0016E000E2E6E015044
:1001480000D09E9200D09EA601D001D097D0818E7B
:100158009E96C7502D0B2F6E2F50090AD8A401D098
:1001680001D00FD0000E266E000E256EC950C6AC09
:1001780001D001D004D0C69CC950818A00D0C6885D
:100188007DD02F50290AD8A401D001D025D0270E20
:100198002524D96EDA6A000EDA22C9CFDFFFC6AC91
:1001A80001D001D004D0C69CC950818A00D0C6882D
:1001B80020EE25F0DE2A000EDD22DE50020ADD10D8
:1001C800D8A401D001D05AD0000E266E000E256E9C
:1001D8000001338053D052D02F500D0AD8A401D03B
:1001E80001D01AD0C850016E026A010E0126000E15
:1001F8000222C95001180210D8A401D001D009D098
:1002080029C0C9FFC688000E266E010E256E9E966F
:1002180035D0818A33D032D02F502C0AD8A401D0BF
:1002280001D026D0C5BC01D001D022D0290E25246A
:10023800D96EDA6A000EDA22DF50C96E016E020E3C
:10024800126E015020EE25F0DE2A000EDD22DE506F
:10025800020ADD10D8A401D001D010D0000E266EFD
:10026800000E256E000EC96EC6889E9607D006D071
:10027800C68804D003D002D001D000D011C0F5FF49
:1002880010C0F8FF0FC0F7FF0EC0F6FF0DC0F4FF57
:100298000CC0F3FF0BC0DAFF0AC0D9FF09C0E2FFA8
:1002A80008C0E1FF07C0EAFF06C0E9FF05C0FBFF81
:1002B80004C0FAFF11000CEF02F039EC02F04DEC2B
:1002C80002F059EC02F063EC02F000D0000133A018
:1002D80001D001D0FBD760D05FD020EE28F0200EEF
:1002E800DF6401D001D00BD0E00E28241B6E1C6AFD
:1002F800FF0E1C22000E1A6E000E196E12D0285026
:10030800176E186A171E181E174A182A200E172467
:10031800196E000E18201A6E000E1C6E000E1B6E51
:1003280000D000013390D2D720EE28F0200EDF64F1
:1003380001D001D00BD0E00E28241F6E206AFF0EDA
:100348002022000E1E6E000E1D6E12D02850176E51
:10035800186A171E181E174A182A200E17241D6E11
:10036800000E18201E6E000E206E000E1F6E00D0AC
:1003780000013390ABD719C029F0A8D71BC029F0CA
:10038800A5D7E9EC01F0296EA1D728C02DF09ED79A
:10039800000133909BD79AD72750000AD8B49DD72D
:1003A800010AD8B4C1D7110AD8B4E5D7300AD8B4ED
:1003B800E5D7440AD8B4E5D7FD0AD8B4E6D7E8D7D4
:1003C80085D784D783D75FEF01F0C28200D0C2B24D
:1003D80001D001D0FCD7C4CF15F0166A1550166E9F
:1003E800156AC3501526000E162215C013F016C044
:1003F80014F0D89014321332D8901432133213C038
:1004080015F014C016F0154A162A155000D012001F
:10041800336A00EE19F0170EEE6AE806FDE1DA0E0F
:10042800F66E040EF76E000EF86E0900F5CF30F088
:100438000900F5CF31F00900F5CF32F0000161EF86
:1004480001F0F00ED36E00D0D3A401D001D0FCD7B8
:1004580000D0680E136EE40EE82EFED7132EFCD7DC
:1004680000F09B8C000ED16E120025EC02F0000EFD
:10047800926E000E936E000E946E000E806E000E4B
:10048800816E000E826E0F0EC16E819E8088828AF8
:100498001200FC0ECA16CA96CA98CA9ACA9C9D82AD
:1004A800F28CCB68CA84F28E1200D58CD59AD58688
:1004B800D580D582D584F29AD59EF28E1200948684
:1004C8009488C78E3E0EC66EC58EC580100EC86E47
:0604D800120064000100A7
:00000001FF
