:020000040000FA
:0600000044EF22F01200A3
:061008008DEF11F0120053
:0610180096EF11F012003A
:06102A0001002845000052
:08103000E300000005000000D0
:08103800D9CFE6FFE1CFD9FF9B
:10104000E652A09A6A6A686A706A010EE66EE66AFB
:10105000E66A710EE66E0F0EE66E3BEC20F0146E43
:10106000050EE15E1450160E6F6E9F0E6B6E7B0EBA
:10107000696EDF6ADF50146E156A080E145C000E8C
:10108000155810E2DF50040DF3CFE9FFF4CFEAFF6B
:10109000000EE926040EEA22EE6AEE6AEE6AEE6AB5
:1010A000DF2AE8D76D8C6E6A6D986D9C68A607D0B4
:1010B00068960101136B186B196B1A6BF7D7010156
:1010C000010E2A6F2B6F2C6B2D6B206BDF6A020ECB
:1010D000DF5C26E2EA6ADF34FE0BEA36E96E0B0ECD
:1010E000E926010EEA22EE6AED6AEA6ADF34FE0BB7
:1010F000EA36E96E070EE926010EEA22EE6AED6A8B
:10110000DF50EA6A240FE96E010EEA22EF6ADF502F
:10111000EA6A260FE96E010EEA22EF6ADF2AD7D7C4
:101120000101080E0B6F040E0C6F160E706E040199
:10113000200E026F040E036F080E016F840E006F05
:101140000101016B006BE552E552E7CFD9FF1200B8
:10115000D9CFE6FFE1CFD9FFE6520101005116E1F8
:1011600006D06D6A696A0101006BA19ABDD06D6AF3
:10117000696A160E6F6E9F0E6B6E7B0E696E6DB692
:1011800002D06D86FCD70101010E006F000508E159
:101190006DBA06D0686A696A69806988020E006F54
:1011A0006850040B06E06950040B03E06894B5EC4A
:1011B0000EF06DA202D0A19A97D06850010B08E002
:1011C0006950010B05E038DF0101040E006F6890E3
:1011D0006850100B06E06950100B03E0A0EC0EF015
:1011E000689868AC19D069AC0FD0010EE66EE66A5B
:1011F000000EE66EE66A730EE66EE66A50EC18F0D4
:10120000146E060EE15E1450689C0101285101E045
:101210002807285101E1EFD96850200B05E06950FB
:10122000200B02E087EC0EF06850020B13E06950CF
:10123000020B10E0010EE66EE66A000EE66EE66A4C
:10124000E6687F0EE66E50EC18F0146E060EE15E56
:1012500014506A6A040E0101E76E0019E8AE02D06C
:10126000E73402D0E750005D02E2A19A3DD069A6C2
:101270003AD0DF6A040EDF5C36E268A631D06CCF6C
:1012800021F101012151780BE842E842E842226F46
:10129000689621B508D02251EA6A260FE96E010E40
:1012A000EA22EF7007D02251EA6A240FE96E010E9C
:1012B000EA22EF70225103E1CCEC0EF010D0000EC8
:1012C000E66EE66A210EE66E010EE66E720EE66EC0
:1012D000E66A50EC18F0146E060EE15E145001D070
:1012E00002D0DF2AC7D7A19AE552E552E7CFD9FF4E
:1012F0001200D9CFE6FFE1CFD9FF020EE126FD0EA5
:10130000DBA407D0E66AFE0EDBCFE6FF05DAE55286
:10131000E552FD0EDBA208D0010EE66EFE0EDBCF1D
:10132000E6FFFAD9E552E552FE0EDB50156A700F62
:10133000146E0F0E152214C0DEFF15C0DDFFDECFC8
:10134000E9FFDDCFEAFFFD0EDBCFEFFF020EE15C30
:1013500002E2E16AE552E16EE552E7CFD9FF120001
:10136000D9CFE6FFE1CFD9FF020EE126FD0EDB501B
:101370000FE0FE0EEA6ADB34FE0BEA36E96E0B0E76
:10138000E926010EEA22EECFDEFFEDCFDDFF0ED023
:10139000FE0EEA6ADB34FE0BEA36E96E070EE9263A
:1013A000010EEA22EECFDEFFEDCFDDFFD9CFE9FF60
:1013B000DACFEAFFEE50ED1003E1F36AF46A49D0A8
:1013C000DECFE9FFDDCFEAFF020EE926000EEA22BA
:1013D000FB0EDBCFEEFFFC0EDBCFEDFFDECFE9FF38
:1013E000DDCFEAFFEE52FA0EDBCFEFFF400E146EB8
:1013F000DECFE9FFDDCFEAFF1450EF16880E146E42
:10140000DECFE9FFDDCFEAFF1450EF12FD0EDB5017
:101410000CE0FE0EEA6ADB34FE0BEA36E96E0B0ED8
:10142000E926010EEA22EF740BD0FE0EEA6ADB34E5
:10143000FE0BEA36E96E070EE926010EEA22EF748A
:10144000DECF14F0DDCF15F014C0F3FF15C0F4FFAC
:1014500000D0020EE15C02E2E16AE552E16EE55283
:10146000E7CFD9FF1200D9CFE6FFE1CFD9FF020EB7
:10147000E126FE0EDB5020E105C1E9FF06C1EAFFCF
:10148000EE52080EEF6E05C1E9FF06C1EAFF020E3B
:10149000E926000EEA22200EEE6E040EED6E05C166
:1014A000E9FF06C1EAFF8C0EEF6E0BC1E9FF0CC12C
:1014B000EAFF840EEF6E3DD0FD0EDB50E824166E81
:1014C000FE0EDB50040DF3501624040DF3CF14F080
:1014D000F4CF15F0000E1426040E152214C0DEFF02
:1014E00015C0DDFF840E146EDECFE9FFDDCFEAFF0D
:1014F0001450EF12FD0EDB50E824166EFE0EDB508A
:10150000040DF3501624010F040DF3CF14F0F4CFA3
:1015100015F0000E1426040E152214C0DEFF15C0AF
:10152000DDFF840E146EDECFE9FFDDCFEAFF14503D
:10153000EF12020EE15C02E2E16AE552E16EE55271
:10154000E7CFD9FF1200D9CFE6FFE1CFD9FF6DA8D1
:101550004ED0FE0EEA6ADB34FE0BEA36E96E0B0E65
:10156000E926010EEA22EE50EFCFEAFFE96E400EC7
:10157000EE16EE6AEE6AEE6AFE0EEA6ADB34FE0BE7
:10158000EA36E96E0B0EE926010EEA22EE50EFCFA5
:10159000EAFFE96EEE7CFE0EEA6ADB34FE0BEA3609
:1015A000E96E0B0EE926010EEA22EF74400E146E6E
:1015B000FE0EEA6ADB34FE0BEA36E96E0B0EE92614
:1015C000010EEA22EE50EFCFEAFFE96E1450EF165B
:1015D000FE0EEA6ADB34FE0BEA36E96E0B0EE926F4
:1015E000010EEA22EE50EFCFEAFFE96EEF7CE55202
:1015F000E7CFD9FF120001012A514DE1010E2A6FF8
:101600002B5149E1010E2B6F020E105D0DE10BC154
:10161000E9FF0CC1EAFFEE52EF6A0BC1E9FF0CC112
:10162000EAFFC80EEF6E37D0100535E1236B03C11A
:10163000E9FF04C1EAFFEE52080EEF6E03C1E9FFB5
:1016400004C1EAFF020EE926000EEA22200EEE6E29
:10165000040EED6E03C1E9FF04C1EAFF840EEF6ED4
:10166000010E236F05C1E9FF06C1EAFFEE52080E25
:10167000EF6E05C1E9FF06C1EAFF020EE926000E82
:10168000EA22200EEE6E040EED6E05C1E9FF06C1E2
:10169000EAFF800EEF6E120001012C6B2D6B020E23
:1016A000105D1AE105C1E9FF06C1EAFFEE52080E1E
:1016B000EF6E05C1E9FF06C1EAFF020EE926000E42
:1016C000EA22280EEE6E040EED6E05C1E9FF06C19A
:1016D000EAFFC80EEF6E1FD014510401265D010110
:1016E00015510401275904E226C414F127C415F149
:1016F000D1D80BC1E9FF0CC1EAFF020EE926000EAA
:10170000EA22280EEE6E040EED6E0BC1E9FF0CC14D
:10171000EAFFC80EEF6E1200D9CFE6FFE1CFD9FF86
:10172000020EE126000EDE6E040EDD6EFD0EDB50B5
:10173000E824166EFE0EDB50040DF3501624040D43
:10174000F3CF14F0F4CF15F0D9CFE9FFDACFEAFFE9
:101750001450EE261550ED22DECFE9FFDDCFEAFF73
:10176000EF9EFD0EDB500FE1FE0EEA6ADB34FE0B4E
:10177000EA36E96E070EE926010EEA22DECFEEFF19
:10178000DDCFEDFF0ED0FE0EEA6ADB34FE0BEA364B
:10179000E96E0B0EE926010EEA22DECFEEFFDDCF69
:1017A000EDFFDECFE9FFDDCFEAFFEF9CDECFE9FF03
:1017B000DDCFEAFF040EE926000EEA22EF8C020ECE
:1017C000E15C02E2E16AE552E16EE552E7CFD9FF62
:1017D00012006D98010113BF2BD018AF09D0020E73
:1017E000106F2D5101E158DF01012B6B2A6B1FD0C7
:1017F00005C1E9FF06C1EAFFEE52080EEF6E05C112
:10180000E9FF06C1EAFF020EE926000EEA22200ED9
:10181000EE6E040EED6E05C1E9FF06C1EAFF8C0E07
:10182000EF6E0BC1E9FF0CC1EAFF840EEF6E31D001
:10183000040120AF0DD00101010E106F2C5101E108
:101840002BDF01012B6B2A6B295101E1D4DE21D062
:101850000101020E106F05C1E9FF06C1EAFFEE5259
:10186000080EEF6E05C1E9FF06C1EAFF020EE92688
:10187000000EEA22200EEE6E040EED6E05C1E9FFA9
:1018800006C1EAFF840EEF6E2B6B2A6B295101E132
:10189000B2DE1200D9CFE6FFE1CFD9FFE652080E43
:1018A000DF6E0101145D000E15590BE214C1DFFF5C
:1018B0000F5103E1010E0F6F04D00F0502E1020E7C
:1018C0000F6FDF50146E156A1450145D146F1550AD
:1018D0001559156F0BC1E9FF0CC1EAFFEE52DFCFBE
:1018E000EFFF280E1D6F040E1E6F13B119D0DF50CD
:1018F00016E011C1F6FF12C1F7FF112B000E1223E3
:101900000800F550E66E1DC1E9FF1EC1EAFF1D2B60
:10191000000E1E23E552E750EF6EDF06E8D717D022
:10192000DF5015E011C1E9FF12C1EAFF112B000ED3
:101930001223EF50E66E1DC1E9FF1EC1EAFF1D2B09
:10194000000E1E23E552E750EF6EDF06E9D7E552A1
:10195000E552E7CFD9FF1200D9CFE6FFE1CFD9FF9B
:10196000020EE12603C1E9FF04C1EAFFEE52EFCF08
:10197000DFFFDFCF14F014500101195D000E1A597A
:1019800002E219C1DFFFDF50146E156A1450195DB1
:10199000196F15501A591A6F010EDB6ADF50F36E7A
:1019A000010EDBCFF4FFF350F45C16E2010EDB50C6
:1019B000EA6A280FE96E040EEA22EF50E66E16C1BD
:1019C000E9FF17C1EAFF162B000E1723E552E75077
:1019D000EF6E010EDB2AE2D7000ED8801955000EFB
:1019E0001A5528E205C1E9FF06C1EAFFEE52080ECA
:1019F000EF6E05C1E9FF06C1EAFF020EE926000EFF
:101A0000EA22280EEE6E040EED6E03C1E9FF04C15A
:101A1000EAFFEF50400B07E105C1E9FF06C1EAFF0D
:101A2000C80EEF6E06D005C1E9FF06C1EAFF880EB9
:101A3000EF6E28D005C1E9FF06C1EAFFEE52080E9D
:101A4000EF6E05C1E9FF06C1EAFF020EE926000EAE
:101A5000EA22200EEE6E040EED6E05C1E9FF06C10E
:101A6000EAFF840EEF6E1B511C1107E005D01CC16C
:101A7000FAFF01011B51F96EFADF0101189F29518C
:101A800001E1B9DD020EE15C02E2E16AE552E16EDC
:101A9000E552E7CFD9FF1200D9CFE6FFE1CFD9FF5A
:101AA000E6520101138F010EE66EE66AE66A710ED8
:101AB000E66E0F0EE66E3BEC20F0146E050EE15E56
:101AC0001450200EE66EE66AE66A000EE66E040E1C
:101AD000E66E3BEC20F0146E050EE15E14506D8C4A
:101AE000DF6A020EDF5C10E2DF50EA6A240FE96E63
:101AF000010EEA22EF6ADF50EA6A260FE96E010E54
:101B0000EA22EF6ADF2AEDD7010EE66EE66AE66AA0
:101B1000020EE66E010EE66E3BEC20F0146E050E32
:101B2000E15E14506D9C0101080E0B6F040E0C6FEA
:101B3000000E036F040E046F03C105F104C106F12A
:101B400022C401F1015103E1100E006F13D0010E08
:101B5000E66EE66A010EE66E010EE66E010EE66EB8
:101B6000E66A50EC18F0146E060EE15E14500101A6
:101B7000200E006FE552E552E7CFD9FF1200800E2C
:101B80000401205D5BE10101C00E136F04012351CC
:101B9000030A34E0010A0EE0030A03E00101136BBB
:101BA0004DD00101600E116F3D0E126F120E146FB9
:101BB000156B44D02251F66EF76AD890F636F73698
:101BC000010EF6263E0EF7220900F5CF11F10A00AC
:101BD000F5CF12F1020E0101F76A1125F66E1251CE
:101BE000F7220800F5CF14F1030EF76A1125F66EFF
:101BF0001251F7220800F5CF15F120D0030E225D17
:101C00001AE22251F66EF76AD890F636F736030ECE
:101C1000F6263E0EF7220900F5CF11F10A00F5CFA6
:101C200012F111C1F6FF12C1F7FF0800F5500101D2
:101C3000146F156B02D00101136B00D01200D9CFC5
:101C4000E6FFE1CFD9FF020EE1260401286B296BE4
:101C500020511F0B020A12E0030A0DE0010A01E005
:101C600042D00101138F0401288101011F0502E107
:101C70000401288338D00101138F35D00101138F5F
:101C8000040124BF10D024510F0BE96EEA6AD890EA
:101C9000E936EA36070EE926010EEA22EECFDEFF2C
:101CA000EDCFDDFF0FD024510F0BE96EEA6AD8901B
:101CB000E936EA360B0EE926010EEA22EECFDEFF08
:101CC000EDCFDDFFDECFE9FFDDCFEAFFEF50800B88
:101CD00009E0DECFE9FFDDCFEAFFEF50040B02E0C1
:101CE000010E286F00D0010113AF07D0280E116F2D
:101CF000040E126F1381020E146F020EE15C02E2F9
:101D0000E16AE552E16EE552E7CFD9FF120070A01B
:101D100015D003C1E9FF04C1EAFFEF5080080DE1CF
:101D20000BC1E9FF0CC1EAFFEF50840806E103C1D3
:101D3000E9FF04C1EAFF8C0EEF6E7090689A120002
:101D4000698468986D820101010E206F000EE66EB5
:101D5000E66AE66EE66A750EE66EE66A50EC18F024
:101D6000146E060EE15E145012000101206B000E8D
:101D7000E66EE66AE66EE66A740EE66EE66A50ECB9
:101D800018F0146E060EE15E14506D92699468A40A
:101D900002D06894FCD71200D9CFE6FFE1CFD9FF7B
:101DA000E65201012D0E286FFD0E211553E17E0E26
:101DB0002115E8407F0B040DF3CF03F1F4CF04F1BC
:101DC000000E0327040E042303C105F104C106F12C
:101DD000057503C1E9FF04C1EAFFEF503C0BE8427F
:101DE000E8420D0835E1DF6A080EDF5C23E203C13B
:101DF000E9FF04C1EAFF020EE926000EEA22EE50D6
:101E0000EFCFEAFFE96EEF50E66EDF50EA6A200F8F
:101E1000E96E040EEA22E552E750EF6E03C1E9FFD6
:101E200004C1EAFF020EE926000EEA22EE2AEF22A2
:101E3000DF2ADAD703C1E9FF04C1EAFF020EE9266F
:101E4000000EEA22200EEE6E040EED6E0DD801D0CB
:101E50003AD805D0FD0E2115040801E159D8E55204
:101E6000E552E7CFD9FF120001010F6B296B2C6BF4
:101E70002D6B236B106B0BC1E9FF0CC1EAFFEF9ECA
:101E80000B750BC1E9FF0CC1EAFFEF9E0B7505C195
:101E9000E9FF06C1EAFFEF9E136B146B156B186B1D
:101EA000196B1A6B8FD8000EE66EE66AE66EE66A6C
:101EB000030EE66EE66A50EC18F0146E060EE15E54
:101EC0001450E9EF0BF0020E0101105D02E144DD58
:101ED0001ED0106B23511AE105C1E9FF06C1EAFFCC
:101EE000EE52080EEF6E05C1E9FF06C1EAFF020ED1
:101EF000E926000EEA22200EEE6E040EED6E05C1FC
:101F0000E9FF06C1EAFF8C0EEF6E01D0236B1200D1
:101F1000D9CFE6FFE1CFD9FFE6520BC1E9FF0CC1F3
:101F2000EAFFEF50400B01E0010EDF6E01010B757F
:101F3000080E005D09E122C46EFF6E5003E0100E32
:101F4000006F02D0040E006F100528E10BC1E9FFFD
:101F50000CC1EAFF020EE926000EEA22280EEE6E00
:101F6000040EED6E97DC020E01010F5D07E10BC15F
:101F7000E9FF0CC1EAFF840EEF6E0FD0DF5007E1DE
:101F80000BC1E9FF0CC1EAFFC80EEF6E06D00BC112
:101F9000E9FF0CC1EAFF880EEF6E0FD018AF0CD02E
:101FA0001B511C1107E005D01CC1FAFF01011B5198
:101FB000F96EFADF0101189F106BE552E552E7CF89
:101FC000D9FF120004012051600BE842E842E842C8
:101FD000E842E842000901E058D021510C0A54E0DF
:101FE0000B0A43E00C0A35E0010A26E00B0A22E066
:101FF000020A20E0030A1CE0080A10E0010A0CE0D3
:102000000F0A08E0030A01E03FD00101138F080E18
:10201000006F3BD0B4DD39D03FDD37D00101010E78
:10202000116F010E126F1381010E146F138F2DD0DB
:1020300006DE2BD02BD829D024510101116F126B51
:10204000020E1127010E12231381010E146F138F3C
:102050001CD00101138F04012451EA6A020FE96EBA
:10206000010EEA2222C4EFFF10D0000EE66EE66AEF
:10207000E66EE66A020EE66EE66A50EC18F0146E42
:10208000060EE15E145001D000D01200D9CFE6FF59
:10209000E1CFD9FF050EE1260401220510E1205110
:1020A0001F0B00090CE10101138F030E0401215DD8
:1020B00004E10101010E1F6F02D001011F6B040139
:1020C000225101E020D120511F0B020801E01BD159
:1020D00024510F0B000901E116D124510F0B010807
:1020E00001E211D1200E0101005D01E00CD1138F3E
:1020F000040124BF1AD024510F0BE96EEA6AD8906C
:10210000E936EA36070EE926010EEA22EECFDEFFB7
:10211000EDCFDDFF24510F0BEA6A260FE96E010EA9
:10212000EA22020EEFCFDBFF19D024510F0BE96E2C
:10213000EA6AD890E936EA360B0EE926010EEA2261
:10214000EECFDEFFEDCFDDFF24510F0BEA6A240F47
:10215000E96E010EEA22020EEFCFDBFFD950020F2B
:10216000E96EDACFEAFFEF50010B03E1000EDF94D6
:1021700001D0DF8424BF10D024510F0BE96EEA6A2E
:10218000D890E936EA36070EE926010EEA22DECFBC
:10219000EEFFDDCFEDFF0FD024510F0BE96EEA6AA1
:1021A000D890E936EA360B0EE926010EEA22DECF98
:1021B000EEFFDDCFEDFF030E215D23E1DECFE9FF72
:1021C000DDCFEAFFEF50800B13E024BF09D024518C
:1021D0000F0BEA6A260FE96E010EEA22EF8208D0A1
:1021E00024510F0BEA6A240FE96E010EEA22EF82F6
:1021F000840E146EDECFE9FFDDCFEAFF1450EF123C
:1022000082D0DF74DECFE9FFDDCFEAFFEF50800B35
:102210001BE0DECFE9FFDDCFEAFFEF9EDECFE9FF77
:10222000DDCFEAFFEF8C020EE66EE66ADECFE6FF58
:10223000DDCFE6FF050EE66EE66A50EC18F0146E90
:10224000060EE15E145005D0DECFE9FFDDCFEAFFD8
:10225000EF8CDF74D950020FE96EDACFEAFFEF504E
:10226000020B07E1DECFE9FFDDCFEAFFEF50800B85
:102270002DE0040124BF09D024510F0BEA6A260F78
:10228000E96E010EEA22EF9208D024510F0BEA6AA0
:10229000240FE96E010EEA22EF923B0E146EDECFA0
:1022A000E9FFDDCFEAFF1450EF16020EE66EE66A94
:1022B000DECFE6FFDDCFE6FF050EE66EE66A50EC08
:1022C00018F0146E060EE15E145008D03B0E146E2A
:1022D000DECFE9FFDDCFEAFF1450EF1604012451F1
:1022E0000F0B156A700F146E0F0E1522030E14C01B
:1022F000DBFF040E15C0DBFF030EDBCFE9FF040E8E
:10230000DBCFEAFFEF90050EE15C02E2E16AE55205
:0A231000E16EE552E7CFD9FF12009D
:06231A00DACFE4FFE2CF80
:10232000DAFFE652E552E5CFDAFF1100D8CFE4FF3D
:10233000E0CFE4FFE46EDACFE4FFE2CFDAFFE6526B
:10234000E552E5CFDAFFE550E5CFE0FFE5CFD8FF76
:102350001000D9CFE6FFE1CFD9FF020EE126FE0E35
:10236000DB50DF6E010EDB6AFE0EDB50F00BE8384F
:102370000F0B146EFE0EDB500F0B100DF3501410EC
:10238000E76EFE0EE7CFDBFFDB50CC0BE840E8400A
:102390003F0B146EFE0EDB50330B040DF350141084
:1023A000E76EFE0EE7CFDBFFDB50AA0BE8407F0BAA
:1023B000146EFE0EDB50550BE8241410E76EFE0E73
:1023C000E7CFDBFFDB50C96EC7A0FED7010EC9CF38
:1023D000DBFFFC0EDBCFE9FFFD0EDBCFEAFF010EDA
:1023E000DBCFEFFFFC0EDBCFE9FFFD0EDBCFEAFF1B
:1023F000EF50F00BE8380F0B146EFC0EDBCFE9FF4B
:10240000FD0EDBCFEAFFEF500F0B100DF350141051
:10241000E66EFC0EDBCFE9FFFD0EDBCFEAFFE552F7
:10242000E750EF6EFC0EDBCFE9FFFD0EDBCFEAFFDE
:10243000EF50CC0BE840E8403F0B146EFC0EDBCFB6
:10244000E9FFFD0EDBCFEAFFEF50330B040DF35035
:102450001410E66EFC0EDBCFE9FFFD0EDBCFEAFFCA
:10246000E552E750EF6EFC0EDBCFE9FFFD0EDBCF50
:10247000EAFFEF50AA0BE8407F0B146EFC0EDBCF97
:10248000E9FFFD0EDBCFEAFFEF50550BE8241410F7
:10249000E66EFC0EDBCFE9FFFD0EDBCFEAFFE55277
:1024A000E750EF6EFC0EDBCFE9FFFD0EDBCFEAFF5E
:1024B000EF50E66EDFCFE6FF0CD8E552E552020E94
:1024C000E15C02E2E16AE552E16EE552E7CFD9FF55
:1024D0001200D9CFE6FFE1CFD9FF0001E551E82492
:1024E000EA6A6D0FE96E000EEA22FE0EDBCFEFFF07
:1024F000E551E824010FEA6A6D0FE96E000EEA2249
:10250000FD0EDBCFEFFF260EE55D01E2E52BE55288
:10251000E7CFD9FF1200D9CFE6FFE1CFD9FFE652CE
:10252000DF6A0001E551E824E56F0001E551DF5C59
:1025300027E2DF50DF2AE96EEA6AE9BEEA686D0E3B
:10254000E926000EEA22EF50E66E20D8E5525F0E33
:10255000E66EB0EC20F0E552DF50DF2AE96EEA6A61
:10256000E9BEEA686D0EE926000EEA22EF50E66E3B
:102570000DD8E552200EE66EB0EC20F0E552D5D72E
:10258000E56BE552E552E7CFD9FF1200D9CFE6FF60
:10259000E1CFD9FF140EE126FE0EDBCFE6FFE66A9F
:1025A0001F0E146E450E156E166A14C0E6FF15C098
:1025B000E6FF16C0E6FFD9CFE6FFDACFE6FF96ECDE
:1025C0001FF0176E070EE15E1750D9CFE6FFDACF86
:1025D000E6FFF4EC21F0E552E552140EE15C02E274
:1025E000E16AE552E16EE552E7CFD9FF1200D9CF9B
:1025F000E6FFE1CFD9FFBD0EE66E000EE66E010EDE
:10260000E66EA7DEE552E552E552BD0EE66E000E1F
:10261000E66EFE0EDBCFE6FF9CDEE552E552E552AC
:10262000BE0EE66E000EE66EE66A93DEE552E552F9
:10263000E552E552E7CFD9FF1200D9CFE6FFE1CF4F
:10264000D9FF160EE1268A94420EE66ED0DFE552DF
:10265000BF0EE66E000EE66EE66A7BDEE552E552E0
:10266000E552C00EE66E000EE66EE66A72DEE552D8
:10267000E552E552C10EE66E000EE66EE66A69DED0
:10268000E552E552E552C20EE66E000EE66EE66ACF
:1026900060DEE552E552E552C30EE66E000EE66ED0
:1026A000E66A57DEE552E552E552C40EE66E000ECC
:1026B000E66EE66A4EDEE552E552E5528A84E66849
:1026C00060EC22F0E552300EE66EB0EC20F0E55200
:1026D0000A0EE66EB0EC20F0E5520D0EE66EB0ECA0
:1026E00020F0E5528A94430EE66E81DFE552BF0E7C
:1026F000E66E000EE66E010EE66E2BDEE552E5524A
:10270000E552C00EE66E000EE66EE66A22DEE55287
:10271000E552E5528A84E66860EC22F0E552310E1B
:10272000E66EB0EC20F0E5520A0EE66EB0EC20F05A
:10273000E5520D0EE66EB0EC20F0E5528A94440EA0
:10274000E66E55DFE552BF0EE66E000EE66E010E38
:10275000E66EFFDDE552E552E552C00EE66E000E74
:10276000E66E030EE66EF5DDE552E552E552C10E6A
:10277000E66E000EE66EE66AECDDE552E552E552E5
:10278000C20EE66E000EE66EE66AE3DDE552E55245
:10279000E552C30EE66E000EE66EE66ADADDE5523D
:1027A000E552E552C40EE66E000EE66EE66AD1DD35
:1027B000E552E552E5528A84E66860EC22F0E55283
:1027C000320EE66EB0EC20F0E5520A0EE66EB0EC8A
:1027D00020F0E5520D0EE66EB0EC20F0E5528A9442
:1027E0004D0EE66E04DFE552BF0EE66E000EE66E9D
:1027F000E66AAFDDE552E552E552C00EE66E000E28
:10280000E66E010EE66EA5DDE552E552E552C10E1B
:10281000E66E000EE66EE6689CDDE552E552E55296
:10282000C20EE66E000EE66EE66893DDE552E552F6
:10283000E552C30EE66E000EE66EE6688ADDE552EE
:10284000E552E552C40EE66E000EE66EE66881DDE6
:10285000E552E552E5528A84330EE66EB0EC20F084
:10286000E5520A0EE66EB0EC20F0E5520D0EE66E73
:10287000B0EC20F0E5528A944F0EE66EB8DEE552D9
:10288000BF0EE66E000EE66EE66863DDE552E552C9
:10289000E552C00EE66E000EE66EE6685ADDE552C1
:1028A000E552E552C10EE66E000EE66E030EE66ED0
:1028B00050DDE552E552E552C20EE66E000EE66EC0
:1028C000E66A47DDE552E552E552C30EE66E000EBC
:1028D000E66EE66A3EDDE552E552E552C40EE66E6E
:1028E000000EE66EE66A35DDE552E552E5528A8471
:1028F000E66860EC22F0E552340EE66EB0EC20F0B3
:10290000E5520A0EE66EB0EC20F0E5520D0EE66ED2
:10291000B0EC20F0E5528A94410EE66E68DEE55296
:10292000BF0EE66E000EE66EE66A13DDE552E55276
:10293000E552C00EE66E000EE66EE66A0ADDE5526E
:10294000E552E552C10EE66E000EE66EE66A01DD66
:10295000E552E552E552C20EE66E000EE66EE66AFC
:10296000F8DCE552E552E552C30EE66E000EE66E67
:10297000E66AEFDCE552E552E552C40EE66E000E63
:10298000E66EE66AE6DCE552E552E5528A84E668E0
:1029900060EC22F0E552350EE66EB0EC20F0E55228
:1029A0000A0EE66EB0EC20F0E5520D0EE66EB0ECCD
:1029B00020F0E5528A94430EE66E19DEE552BF0E12
:1029C000E66E000EE66EE66AC4DCE552E552E552BC
:1029D000C00EE66E000EE66E5A0EE66EBADCE552EA
:1029E000E552E552C10EE66E000EE66E5A0EE66E38
:1029F000B0DCE552E552E552C20EE66E000EE66E20
:102A00005A0EE66EA6DCE552E552E552C30EE66EBE
:102A1000000EE66E5A0EE66E9CDCE552E552E5527B
:102A2000C40EE66E000EE66E5A0EE66E92DCE552BD
:102A3000E552E5528A84E66860EC22F0E552360EF3
:102A4000E66EB0EC20F0E5520A0EE66EB0EC20F037
:102A5000E5520D0EE66EB0EC20F0E5525CDD160E90
:102A6000E15C02E2E16AE552E16EE552E7CFD9FFAF
:102A70001200D9CFE6FFE1CFD9FF270EE126160ECF
:102A8000DB6ADBDD8A94420EE66EB1DDE552BF0EF5
:102A9000E66E000EE66EE66A5CDCE552E552E55253
:102AA000C00EE66E000EE66EE66A53DCE552E552B5
:102AB000E552160EDB6A040EF36E160EDBCFF4FF42
:102AC000F350F45C19E2D950230F166EDACF17F0E9
:102AD000160EDB5000011624146E000E1720156E22
:102AE00014C0E6FF15C0E6FFE66A33DCE552E552A6
:102AF000E552160EDB2ADFD7160EDB6A0C0EF36EDC
:102B0000160EDBCFF4FFF350F45C30E2160EDB5010
:102B1000156ACB0F146E000E152214C0E6FF15C007
:102B2000E6FFE66A16DCE552E552E552160EDB508A
:102B3000EA6ACB0FE96E000EEA22EF5002E1000EC6
:102B400001D0010EE66ED950170F146EDACF15F0D2
:102B5000160EDB500F011424E96E000E1520EA6EEC
:102B6000E552E750EF6E160EDB2AC8D78A84D3DC15
:102B70000A0EE66EB0EC20F0E5520D0EE66EB0ECFB
:102B800020F0E552140EE66E24EC22F0E552E668E1
:102B900024EC22F0E552E66824EC22F0E552E668E7
:102BA00024EC22F0E5526ED7270EE15C02E2E16AE6
:102BB000E552E16EE552E7CFD9FF120005D8A8EC47
:102BC00008F02ED8FCD712000F0EC11202D81CEF4D
:102BD00008F0F00E891692169388938A8150100B94
:102BE00001E0010E0001606F8150200B01E0010E39
:102BF000616F6A6B6B6BE66A030EE66E020EE66E41
:102C000046EC21F0E552E552E55288EC20F0929036
:102C1000949E8A84F90E936E949C92901DEF13F00B
:102C2000C7D9200E0101E76E0019E8AE02D0E734E3
:102C300002D0E750005D03E36D50020B01E001D0CC
:102C400001D81200D9CFE6FFE1CFD9FF2B0EE12644
:102C5000160EDB6A270EDB6A280EDB6A0A0EF36E9D
:102C6000290EF3CFDBFF2A0EDB6A00016A516B11DC
:102C700002E1000E08D06AC0E9FF6BC0EAFFEF5026
:102C8000800B01E0010E000901E087D18A94420E19
:102C9000E66EADDCE552D950270FE66E000EDA2065
:102CA000E66EE66AA9EC11F0E552E552E552D9501C
:102CB000280FE66E000EDA20E66EE66AA9EC11F047
:102CC000E552E552E552160EDB6A040EF36E160E5F
:102CD000DBCFF4FFF350F45C54E2D950230F166EAF
:102CE000DACF17F0160EDB5000011624146E000E1A
:102CF0001720156E14C0E6FF15C0E6FFE66AA9ECC2
:102D000011F0E552E552E552D950230F156EDACF96
:102D100016F0160EDB500F011524E96E000E16207A
:102D2000EA6EEFCF14F0290EDBCFE6FF800EE552FE
:102D3000D880E754D880145421E2D950230F186E5C
:102D4000DACF19F0160EDB501824E96E000E1920A8
:102D5000EA6EEFCF17F0290EDB50800F175C0EE202
:102D6000D950230F146EDACF15F0160EDB50142451
:102D7000E96E000E1520EA6E800EEF6E160EDB2A4D
:102D8000A4D7160EDB6A0C0EF36E160EDBCFF4FF23
:102D9000F350F45C31E2160EDB50156ACB0F146E63
:102DA000000E152214C0E6FF15C0E6FFE66AA9EC86
:102DB00011F0E552E552E552160EDB50EA6ACB0FF0
:102DC000E96E000EEA22EF5002E1000E01D0010E82
:102DD000E66ED950170F146EDACF15F0160EDB50D1
:102DE0000F011424E96E000E1520EA6EE552E7503B
:102DF000EF6E160EDB2AC7D78A848BEC12F00A0E10
:102E0000E66EB0EC20F0E5520D0EE66EB0EC20F070
:102E1000E5521D0EDB5005010093E8B000831E0E45
:102E2000DB500091E8B000811C0EDB500095E8B04B
:102E300000851B0EDB500097E8B000871F0EDB50AB
:102E40000099E8B00089200EDB50009BE8B0008BB1
:102E5000210EDB50009DE8B0008D220EDB50009F5C
:102E6000E8B0008F270EDB50010B02E0000E01D00E
:102E7000010E0191E8B00181270EDB50080B02E042
:102E8000000E01D0010E0193E8B00183270EDB5044
:102E9000020B02E0000E01D0010E0195E8B00185A1
:102EA000270EDB50040B02E0000E01D0010E01974B
:102EB000E8B001870199270EDB50F00BE8380F0BC3
:102EC000060A3EE0010A36E0040A2EE00A0A26E07D
:102ED000020A1EE0070A16E0010A0EE0030A09E0F2
:102EE000010A01E033D0080EF36E2A0EF3CFDBFFA8
:102EF0002DD02A0EDB6A2AD0020EF36E2A0EF3CFF3
:102F0000DBFF24D0010EF36E2A0EF3CFDBFF1ED0C1
:102F1000040EF36E2A0EF3CFDBFF18D0030EF36E10
:102F20002A0EF3CFDBFF12D0050EF36E2A0EF3CF7D
:102F3000DBFF0CD0060EF36E2A0EF3CFDBFF06D0BC
:102F4000070EF36E2A0EF3CFDBFF00D02A0EDB5004
:102F50000F0BF36EF00E0215F310026F250EDBCF90
:102F600003F5260EDBCF04F5230EDBCF05F5240E8B
:102F7000DBCF06F5070EE66E000EE66E050EE66E7A
:102F8000010EE66EE66EB0EC09F0146E050EE15E21
:102F90001450F3CF6AF0F4CF6BF02B0EE15C03E238
:102FA00000D0E16AE552E16EE552E7CFD9FF1200A9
:102FB0000001E651E71104E1100EE66F270EE76FFE
:102FC000E607000EE75B6DA20AD0E651E71106E1C5
:102FD000897089A002D0898201D089922ED0010106
:102FE000005103E18990899228D0000503E189808E
:102FF000898223D0020E005D03E1898089921DD071
:10300000040E005D03E18990898217D0100E005DE7
:1030100007E10001E651E71102E1897089920DD0C4
:10302000200E005D0AE10001E651E71106E189701A
:1030300089A002D0899201D0898212001200120068
:10304000120012002AEF1FF012001E0EE66E010E93
:10305000E66E79EC09F0E552E552120001011F0518
:103060001EE1010120051BE1EADF6D920101206BE9
:103070000001100ED76F0E0ED86FD707000ED85B69
:10308000D751D811FAE16D84080ED76F070ED86FAB
:10309000D707000ED85BD751D811FAE16D94120012
:1030A000D9CFE6FFE1CFD9FFFD0EDBCF06F0FE0E54
:1030B000DBCF07F0050E061801E1075039E0E8689C
:1030C000061802E17F0E071831E0030E061801E131
:1030D00007502AE0020E061801E1075023E0010E16
:1030E000061801E107501CE0740E061801E10750B4
:1030F00015E0750E061801E107500EE0730E061874
:1031000001E1075007E0720E061801E1075001E0E7
:1031100010D00FD095DF0DD091DF0BD090DF09D00C
:1031200094DF07D091DF05D08DDF03D08ADF01D097
:0E31300000D0010E00D0E552E7CFD9FF12000B
:02313E00DBECC8
:103140001DF0FB0EDBCFF3FFDB06F35000090AE0B6
:1031500029EC1EF0FA0E94EC1EF0F3E1151CF1E1DF
:10316000010E01D0000E0AEF1EF0DBEC1DF03B0E4D
:10317000E12402E3E168E652E16E010EDB6A020E31
:10318000DB6AF90EDBCFF6FFFA0EDBCFF7FFFB0EA3
:10319000DBCFF8FF0800F550DF6EDF5002E12EEFC5
:1031A0001DF0250EDF5C02E021EF1DF0030EDB6A4F
:1031B000040EDB6A050EDB6A060EDB6A070EDB6AAD
:1031C00043EC1DF02D0EDF5C0CE02B0EDF5C09E004
:1031D000200EDF5C06E0230EDF5C03E0300EDF5CD8
:1031E0001AE1DF50300A14E0130A0FE0030A0AE084
:1031F0000B0A05E0060AE4E1030EDB80E1D7030ECB
:10320000DB82DED7030EDB84DBD7030EDB86D8D769
:10321000030EDB88D5D72A0EDF5C1BE13FEC1DF0E7
:103220008DEC1DF010E0030EDB8006680768130EBE
:10323000DBCF0DF0140EDBCF0EF078EC21F0040E96
:1032400004C0DBFF03D0130E76EC1DF043EC1DF041
:103250000BD0090EDB6AE4EC1DF003E058EC1EF025
:10326000FAD7090E76EC1DF0030EDBB0DB982E0EBC
:10327000DF5C1BE143EC1DF02A0EDF5C0BE13FEC51
:103280001DF08DEC1DF003E1130EC8EC1DF043ECB6
:103290001DF00BD0090EDB6AE4EC1DF003E058ECE6
:1032A0001EF0FAD7090EC8EC1DF0680EDF5C07E1CE
:1032B00043EC1DF0680EDF5C1DE1030E18D0740EA8
:1032C000DF5C17E07A0EDF5C14E0480EDF5C06E09E
:1032D000540EDF5C03E05A0EDF5C02E1020E07D001
:1032E0006C0EDF5C03E06A0EDF5C04E1010E1BEC98
:1032F0001EF0C9DBDF506E0A01E17FD31E0A01E137
:1033000092D1200A01E18FD13F0A01E149D11A0A85
:1033100001E146D10D0A01E143D1200A01E140D18A
:103320003A0A01E13DD1200A01E13AD1260A01E140
:1033300035D10D0A01E132D11A0A01E1D9D0200AB2
:103340004AE0300A1FE0460A0EE0250A01E083D376
:10335000D950F90FE96EFF0EDA20EA6E010EEE5E2B
:10336000000EEE5AEE5A29EC1EF0250EE66E95DBA5
:1033700003E1151C01E169D325EC1EF001E26BD3DA
:10338000DB2A69D3080EDB6A040EDB50010806E273
:10339000040EDB04EDEC1DF0DB508BDB080EDB5084
:1033A00009E0030EDB50010B05E172DB01E04DD3B8
:1033B000080EDB6A64DBEFCFDFFF9DEC1EF003E15C
:1033C000151C01E142D325EC1EF001E3DB2A60DB92
:1033D00001E141D33AD3070EDB5002080FE169EC5B
:1033E0001EF0030E30EC1EF00E0EEECFDBFF0F0EC4
:1033F000EECFDBFF100EEECFDBFF20D0F70EDBCFE2
:1034000017F0F80EDBCF18F0020E175E000E185AF8
:10341000F70E17C0DBFFF80E18C0DBFF17C0E9FF7F
:1034200018C0EAFF20EC1EF0166A0E0E14C0DBFF77
:103430000F0E15C0DBFF100E16C0DBFF0E0EDBCF2C
:10344000E6FF0F0EDBCFE6FF100EDBCFE6FF63ECEF
:1034500020F0E552E552E552130E05C0DBFF140ED5
:1034600006C0DBFF060EDB5005E0130E64EC1EF019
:1034700001E26ADB88EC1EF002E2130E37DB4BEC54
:103480001EF006E0040E64EC1EF002E2050E2EDBD8
:10349000030EDBB005D0FCDA01E0D7D2080EDB6A00
:1034A000090EDB6A0E0EDBCFF6FF0F0EDBCFF7FF48
:1034B000100EDBCFF8FF0800F550DF6EDF5014E090
:1034C0008EEC1EF011E29DEC1EF003E1151C01E1F3
:1034D000BCD2BBDB01E3DB2A090EDB2AD9500E0F7D
:1034E000E96E000ECBDBE7D7D3DA01E1B4D2ADD27F
:1034F000C6DA110EEECFDBFF120EEDCFDBFF110EA1
:10350000DBCFE6FF120EDBCFE6FF55EC20F0E552F5
:10351000E552130EF3CFDBFF140EF4CFDBFF060EE4
:10352000DB5004E0130ED0DB01E20EDB88EC1EF072
:1035300002E2130EDBDAAFDB05E0040EC5DB02E2CC
:10354000050ED4DA030EDBB005D0A2DA01E07DD29D
:10355000080EDB6A090EDB6A110EDBCFE9FF120EE3
:10356000DBCFEAFFEFCFDFFFDF5014E0D7DB12E263
:10357000E4DB03E1151C01E168D267DB01E3DB2A30
:10358000090EDB2A110EDB2ADBCFE9FF120EE8E37E
:10359000DB2AE6D77DDA01E15ED257D2030EDB8E5D
:1035A000070EDB0410E195DB040E5ADB0A0EEECFAA
:1035B000DBFF0B0EEECFDBFF0C0EEECFDBFF0D0EB5
:1035C000EECFDBFF6CD0070EDB5003082CE1030EBF
:1035D000DBAE0DD0B2DA020E76DAEFCF14F0156A58
:1035E000166A176A14AE39D01568166835D0F70E0A
:1035F000DBCF15F0F80EDBCF16F0020E155E000ED5
:10360000165AF70E15C0DBFFF80E16C0DBFF15C00B
:10361000E9FF16C0EAFFEFCF14F00A0E14C0DBFF7B
:103620000B0EDB6A38D0070EDB50020809E1030EEF
:10363000DBAE04D059DB16AE10D00ED055DB0DD06A
:10364000030EDBAE12D079DA020E3DDAF9DA166A31
:10365000176A15AE02D016681768E2DA0C0E16C0AB
:10366000DBFF0D0E17C0DBFF1AD0F70EDBCF16F015
:10367000F80EDBCF17F0020E165E000E175AF70E8B
:1036800016C0DBFFF80E17C0DBFF16C0E9FF17C03E
:10369000EAFFD6DAC5DA0C0EDB6A0D0EDB6A060E1F
:1036A000DB5005E1010EF36E050EF3CFDBFF150EC7
:1036B000DB6A160EDB6AD950370F146E000EDA2063
:1036C000156E390E14C0DBFF3A0E15C0DBFF380E45
:1036D000DB6A080EDB6A0A0EAEDADF50780A12E007
:1036E000200A10E0280A0CE0200A0AE03F0A06E05F
:1036F0000D0A02E0200A08E1020E05D0080E03D0F0
:10370000080EDF26100E97DA030EDBBE02D0DB9226
:10371000DB94DB50800B24E08ADAD890030EEB5068
:10372000000A08E6000EEE5C000EEE58000EEE58A1
:10373000000EEE5815E213DA0B680C680D680E687F
:103740000EEC21F00A0E00C0DBFF0B0E01C0DBFF08
:103750000C0E02C0DBFF0D0E03C0DBFF2D0E08D0E8
:10376000030EDBA202D02B0E03D0DBA408D0200E68
:10377000F36E170EF3CFDBFF150EDB2A02D0170E08
:10378000DB6A050EDB5003E1B7D901E189D00E0EEB
:10379000146E450E156E000E166E070EDBCF17F079
:1037A000186A196A1A6A17C00BF018C00CF019C011
:1037B0000DF01AC00EF0D3D9D0EC21F01450002433
:1037C000F36E15500120F46E16500220F86EF4CFFF
:1037D000F7FFF3CFF6FF0800090EF5CFDBFF580E19
:1037E000DF5C0FE1610EF36E090E7BD90AE3200E58
:1037F000146E090EDBCFE7FF1450E75E090EE7CF2A
:10380000DBFF070EDBCF14F0156A166A176A0FDAB2
:1038100014C00BF015C00CF016C00DF017C00EF060
:10382000EECF04F0EECF05F0EECF06F0EFCF07F0CD
:10383000D0EC21F007C0EDFF06C0EDFF05C0EDFFA5
:1038400004C0EFFF390EDBCFE9FFDB063A0EDBCF1A
:10385000EAFF01E2DB06090EDBCFEFFF150EDB2AE4
:103860004BD995E1030EDBA61DD06F0EDF5C06E1A0
:10387000C1D918E3150EDB285BDA14D0780EDF5CB3
:1038800009E0580EDF5C06E0620EDF5C03E0420EEA
:10389000DF5C08E1020EF36E160EF3CFDBFF02D001
:1038A000150EDB6A030EDB50100B0EE0040EDBCFAF
:1038B00014F0050EDB50D880145406E2060EDB50DF
:1038C00003E1040EDB5034DA95D90AE2050EDBCFB2
:1038D000E7FF150EDB50E75E050EE7CFDBFF02D0FA
:1038E000050EDB6A040EDBCF14F0160E45D9D88026
:1038F000145414E2160EDBCFE6FF150EDBCFE6FF05
:10390000040EDBCFE6FF050EDB50E552E75CE55227
:10391000D880E754E552D880E7545FD9030EDB50D6
:10392000010B0BE1080EDB5008E0B2D801E08DD0AE
:10393000080EDB50BED8080EDB6A170EDB5007E01E
:1039400088D9170EF1D903E1151C01E17ED0160EBE
:10395000DB5016E07ED9300EE66E9FD802E1151CD2
:1039600074E077D9DFCFE6FFCCEC20F0E552E552EA
:10397000E552F4CF15F00001F31C02E1151C65E0DF
:10398000050EDBCF14F0160EDB50D880145409E27C
:10399000050EDBCFE7FF160EDB50E75E050EE7CF27
:1039A000DBFF300EE66E050ECBD94FE1390EDB2A78
:1039B000DBCFE9FF3A0E01E3DB2ADBCFEAFF090E9A
:1039C000EFCFDBFFDB500EE044D9090EADD902E1A9
:1039D000151C3BE0390EDB2ADBCFE9FF3A0EEDE3A5
:1039E000DB2AEBD755D831E1160EDBCFE6FF080E08
:1039F000C3D8E552E7245DD82ED0070EDB50030A6A
:103A00001CE0010A14E0030A07E07BD9DBCFEEFFDC
:103A1000020EDBCFEDFF1FD0F5D8196A17AE02D02A
:103A2000186819682CD8BCD819C0EEFF14D0EAD891
:103A300017BE186824D8B4D80ED063D9DBCFEFFFF7
:103A40000AD07BD905E1151C03E1F368F46810D0B6
:103A5000FCD801E3DB2A79D9CAEF18F0010EDBCFDD
:103A600014F0020EDBCF15F014C0F3FF15C0F4FF05
:103A70003B0EE15C02E2E16AE552E16ECBD029D96E
:103A8000020E30EF1EF061D90800F550DF6E120013
:103A9000200EE66E080EA0EF1EF0CCEC20F0E552F2
:103AA000E552E552F3CF14F0F4CF15F00001F31C0A
:103AB0001200146E156AD950010F4DD91450EE261C
:103AC0001550ED221200185E000E195AF70E18C09C
:103AD000DBFFF80E19C0DBFF18C0E9FF19C0EAFFD1
:103AE0001200DBCFF4FFF350F45C1200DB50E76E02
:103AF000040EE7CFDBFF12000A0EDBCF14F00B0E33
:103B0000DBCF15F00C0EDBCF16F00D0EDBCF17F070
:103B100014501510161017101200130EEECFDBFF05
:103B2000140EEDCFDBFF130EDBCF14F0140EDBCF42
:103B300015F00001800E15141200F70EDBCF18F0FF
:103B4000F80EDBCF19F01200050EDB50E66ED950EF
:103B5000130F01D9E552E750EE6EED6A12000A0E1E
:103B6000DBCF04F00B0EDBCF05F00C0EDBCF06F045
:103B70000D0EDBCF07F01200DBCFE6FF150EDBCF1B
:103B8000E6FF050EDB50E552E724E552E72412007C
:103B9000DB50CED8010EF36E060EF3CFDBFF120022
:103BA000EE50EFCFEAFFE96E16C0EEFF17C0EEFF52
:103BB00018C0EEFF1200D9CFE6FFDACFE6FFE1CF63
:103BC000D9FFE2CFDAFF1200DFCFE6FFE66A12ECA0
:103BD00022F0E552E552F3501200E76E080EE7CFEF
:103BE000DBFF1200EECF14F0EECF15F0EFCF16F0A2
:103BF000176A1200050EDBCF14F0150EDB50D880CB
:103C000014541200010EDBCF16F0020EDBCF17F0BA
:103C1000186A1200E552E5CFDAFFE7CFD9FF1200AC
:103C20000A0E14C0DBFF0B0E15C0DBFF1200D950CB
:103C30000A0FABEF1EF0F36E070EF3CFDBFF12009F
:103C4000EECF14F0EFCF15F01200010EDB2A020EBA
:103C50001200FC0EDBCFE6FFFD0EDBCFE6FF12000D
:103C6000145E000E155AF70E14C0DBFFF80E15C0D7
:103C7000DBFF14C0E9FF15C0EAFF1200DA20EA6E8C
:103C8000EF2AEECFF6FF000EEF22EECFF7FFEF2286
:103C9000EECFF8FF1200040EDBCFE6FF130EDB5071
:103CA000E552E75C9ADFDB5004DF060EDB501200C2
:103CB000090EDB500A0DF350DF24D00FE76E090E1A
:103CC000E7CFDBFF43EF1DF0DB50F36E050E71EF26
:103CD0001DF0F70EDBCF14F0F80EDBCF15F012005D
:103CE000DFCFE6FF4DEF1DF028DF030EECDEF2EF35
:103CF0001DF09FEC18F0E552E552E552E55200093F
:103D00001200BDDEEE50EFCFEAFFE96E010E1200A9
:103D1000130EDB50F36E040E71EF1DF0040EDB503A
:103D2000F36E090E71EF1DF0DBCFE6FF4DEF1DF0D6
:103D3000E76E050EE7CFDBFF12008BDF70EF1EF0A2
:103D4000DBCFE6FF86DF79EF1EF0D950F90FE96E81
:103D5000FF0E3EEF1EF0E96E000EDA20EA6E120052
:103D60001201000200000008D8045E0001000102F8
:103D7000000109022900010100C03209040000020B
:103D800003000000092111010001224A00070581FA
:103D90000340000107050103400001040309043446
:103DA000034D006900630072006F006300680069E2
:103DB000007000200054006500630068006E006F12
:103DC000006C006F0067007900200049006E0063FE
:103DD000002E002E0341006E0061006C0020004A9E
:103DE000006F007900730000000000000000000078
:103DF00000000000000000000000000000000000C3
:103E000000723D9B3D9F3DD33D05010905A1011574
:103E1000002501350045017501950D050919012998
:103E20000D81029503810105012507463B017504BB
:103E3000950165140939814265009501810126FFCC
:103E40000046FF000930093109320935750895042B
:033E50008102C02C
:0C3E5400040120511F0B010801E065D0A3
:103E6000245101E062D0060E215D22E12351230A94
:103E70001EE0010A11E0030A01E01AD00101010568
:103E80000AE10101840E116F3D0E126F090E146FCD
:103E9000156BC00E136F0CD00101090E116F3E0E91
:103EA000126F4A0E146F156BC00E136F01D000D045
:103EB00004012051600BE842E842E842E842E8424F
:103EC000010801E032D021510B0A29E0080A1CE068
:103ED000090A14E0080A07E00B0A04E0080A01E0F6
:103EE00024D023D022D00101EA0E116F000E126FF0
:103EF000010E146F156BC10E136F17D00101800EE8
:103F0000136F23C4EAF011D00101EB0E116F000E04
:103F1000126F010E146F156B810E136F06D0010125
:0C3F2000800E136F22C4EBF000D01200E2
:043F2C00D9CFE6FF04
:103F3000DACFE6FFE1CFD9FFE2CFDAFFE652E65271
:103F4000E652E652D950F90F146EFF0EDA20156EC4
:103F5000020E14C0DBFF030E15C0DBFF020EDBCF29
:103F6000E6FF030EDBCFE6FFF90EDBCFE6FFFA0E2E
:103F7000DBCFE6FFFB0EDBCFE6FFD950FC0FE66E92
:103F8000FF0EDA20E66EB5EC18F0146E070EE15C59
:103F900002E2E16AE552E16E1450F3CFDEFFF4CFA6
:103FA000DDFFFC0EDBCFE9FFFD0EDBCFEAFFEF6AA2
:103FB000DECF14F0DDCF15F014C0F3FF15C0F4FF11
:103FC000040EE15C02E2E16AE552E16EE552E5CF02
:083FD000DAFFE7CFD9FF120070
:083FD8002A0EF66E100EF76EC2
:103FE000000EF86E00010900F550DE6F0900F55073
:103FF000DF6F03E1DE6701D03DD00900F550D96FD6
:104000000900F550DA6F0900F550DB6F090009006F
:10401000F550E96E0900F550EA6E09000900090043
:10402000F550DC6F0900F550DD6F09000900F6CF8F
:10403000E0F0F7CFE1F0F8CFE2F0D9C0F6FFDAC058
:10404000F7FFDBC0F8FF0001DC5302E1DD5307E0BE
:104050000900F550EE6EDC07F8E2DD07F9D7E0C0A5
:10406000F6FFE1C0F7FFE2C0F8FF0001DE07000E37
:06407000DF5BBFD7120068
:0A407600FE0EE3CFE9FFFF0EE3CFDB
:10408000EAFFE9CFF3FFEACFF4FFFB0EE35003E1D1
:10409000FC0EE35009E0FB0EE30602E2FC0EE30631
:1040A000FD0EE350EE6EF1D71200FE0EE3CFE9FFF6
:1040B000FF0EE3CFEAFFF36AF46AEE5203E0F34A3D
:1040C000F42AFBD71200FF0EE3CFF8FFE552FF0EF4
:1040D000E3CFF7FFE552FF0EE3CFF6FFE552E66AC6
:1040E000E66AE66A0900F55209E0FD0EE32A05E1F9
:1040F000FE0EE32A02E1FF0EE32AF4D7FD0EE3CF22
:1041000005F0FE0EE3CF06F0FF0EE3CF07F012003E
:104110000F01949C828C0F01938A818A1200000106
:10412000080EE96F0F0181BA93EF20F06EEC22F0D8
:104130000F0181BA93EF20F06FEC22F00F0181AAFA
:10414000D89081BAD8800001E833E92F9CEF20F0A5
:104150006FEC22F06EEC22F000000001E85112003A
:104160000001FF0EE3CFE8F0090EE96FD8900F01D0
:10417000BCEF20F00001E8330F01D8A0829CD8B03A
:10418000828C70EC22F00001E92FBAEF20F00F01D1
:08419000828C70EC22F0120099
:08419800D9CFE6FFDACFE6FF04
:1041A000E1CFD9FFE2CFDAFFFB0EDBCF14F0FC0E3C
:1041B000DBCF15F00001800E15141AE1FB0EDBCFEA
:1041C000E9FFFC0EDBCFEAFFEECFF3FFEDCFF4FF0C
:1041D000EE2A000EEF22F3CFE9FFF4CFEAFFFD0E47
:1041E000DBCFEFFFEF50156AF36E15C0F4FF10D070
:1041F000FB0EDB50FE0806E1FD0EDBCFE6FF52ECC6
:1042000022F005D0FD0EDBCFE6FF92EC22F0E55266
:0C421000E552E5CFDAFFE7CFD9FF12003E
:04421C0004500B023D
:10422000F3CF00F0F4CF01F00C02F3500126000EA2
:10423000F420026E04500D02F3500226000EF4200A
:10424000036E04500E02F350032605500B02F35088
:104250000126F4500222000E032205500C02F350F6
:104260000226F450032205500D02F3500326065097
:104270000B02F3500226F450032206500C02F350B6
:0C428000032607500B02F3500326120027
:04428C00D9CFE6FFA1
:10429000DACFE6FFE1CFD9FFE2CFDAFF3F0EC71654
:1042A000C66AFD0EDB50C612FB0EDB50C712FC0EB9
:1042B000DB50030A09E0010A04E0020A06E1C78CA8
:1042C00004D0C78CC68801D0C688FD0EDB50050A15
:1042D00003E0010A03E1928A938201D093929380D2
:1042E000949EC68AE552E5CFDAFFE7CFD9FF1200E8
:1042F00007C013F006C012F006500D02F4CF05F00F
:10430000F3CF04F007500E02F4CF07F0F3CF06F01E
:104310000D02F3500526F4500622E86A07221250D7
:104320000E02F3500526F4500622E86A07220EAE6C
:104330009EEF21F01250065E1350075A13AE000C88
:0A4340000D50065E0E50075A000CE7
:06434A00D9CFE6FFE1CF30
:10435000D9FF020EE126DF6AFC0EDB50DF5C16E2BD
:104360008FEC20F0E76E010EE7CFDBFFFD0EDBCF19
:10437000E9FFFE0EDBCFEAFF010EDBCFEFFFFD0E04
:10438000DB2AFE0E01E3DB2ADF2AE6D7020EE15C20
:1043900002E2E16AE552E16EE552E7CFD9FF120091
:1043A000036A026A016A006A200EE76ED89004363A
:1043B00005360636073600360136023603360B5010
:1043C000005C0C5001580D5002580E50035809E380
:1043D0000B50005E0C50015A0D50025A0E50035AF9
:0843E000042AE72EE4D71200C5
:0843E800D9CFE6FFE1CFD9FFB8
:1043F000FD0EDBCFE9FFFE0EDBCFEAFFEF50E66EEE
:10440000B0EC20F0E552FD0EDBCFE9FFDB2AFE0E1B
:10441000DBCFEAFF01E3DB2AEF50EAE1E552E7CF29
:04442000D9FF1200AE
:0C442400F36AF46AFF0EE124E96EFF0E5B
:10443000E220EA6EED6607D02F0EEF6404D03A0E4C
:08444000EF6001D0F32A120025
:08444800FF0EE3501B6E480E4D
:1044500001D04C0EE76EE72EFED7E76AE72EFED7B7
:084460001B2EF7D7000012002B
:08446800000EF36E00EE00F0FF
:10447000080E01D81200EA6002D0EE6AFCD7F350B1
:08448000E9601200EE6AFCD7AE
:0844880013EE00F023EE00F03A
:10449000F86A0A9CECEC1FF093EC22F0DEEC15F0CD
:0444A000FBD7120034
:0C44A400FF0EE350ACBA04D0AF6AAB8E40
:1044B000AC8A949CACA2FED7AD6EF36EF46A120087
:1044C000FF0EE3501B6E1B0E00D001D0200EE76ED6
:0C44D000E72EFED71B2EFAD700D01200FA
:0444DC0012001200B8
:1044E000050EE66E7CEC22F0E552000000000000B4
:0844F0000000000000001200B2
:0844F800FF0EE350E84E120034
:0E450000000000D000D000D0E82EFAD7120044
:02450E0030314A
:0F4510003233343536373839616263646566009B
:01451F002576
:0445200030325800DD
:02452400120083
:02452600120081
:0545280000000000008E
:020000040030CA
:010000003BC4
:010001000EF0
:010002003FBE
:010003001EDE
:010005008179
:010006008178
:010008000FE8
:01000900C036
:01000A000FE6
:01000B00E014
:01000C000FE4
:01000D0040B2
:00000001FF
